:020000040800F2
:10000000D8F601203D02000845020008470200081A
:10001000490200084B0200084D02000800000000E1
:100020000000000000000000000000004F02000877
:10003000510200080000000053020008513200087D
:10004000570200085702000857020008570200082C
:10005000570200085702000857020008570200081C
:10006000570200085702000857020008570200080C
:1000700057020008570200085702000857020008FC
:1000800057020008570200085702000857020008EC
:10009000570200085702000857020008910B000899
:1000A00057020008570200085702000857020008CC
:1000B00057020008570200085702000857020008BC
:1000C00057020008570200085702000857020008AC
:1000D000570200089536000857020008570200082A
:1000E000570200085702000857020008570200088C
:1000F000570200085702000857020008570200087C
:10010000570200085702000857020008570200086B
:100110005702000857020008570200081133000870
:1001200057020008A90A00085702000857020008F1
:10013000570200085702000857020008570200083B
:10014000570200085702000857020008570200082B
:10015000570200085702000857020008570200081B
:10016000570200085702000857020008570200080B
:10017000570200085702000857020008000000005C
:10018000570200085702000800F002F800F047F894
:100190000AA090E8000C82448344AAF10107DA45E2
:1001A00001D100F03CF8AFF2090EBAE80F0013F0ED
:1001B000010F18BFFB1A43F001031847748C0300AA
:1001C000948C0300103A24BF78C878C1FAD852073B
:1001D00024BF30C830C144BF04680C6070470000C1
:1001E0000023002400250026103A28BF78C1FBD840
:1001F000520728BF30C148BF0B607047642900F028
:100200001381782900F04C81632900F0AE8300202F
:1002100070471FB532F058FF1FBD10B510BD00F07C
:1002200011FC1146FFF7F5FF2CF0BCFF00F02FFC8E
:1002300003B4FFF7F2FF03BC07F04AFF0948804709
:1002400009480047FEE7FEE7FEE7FEE7FEE7FEE7B8
:10025000FEE7FEE7FEE7FEE704480549054A064BD0
:1002600070470000FD32000889010008D8560120BF
:10027000D8F60120D8A60120D8A60120704753EA5D
:10028000020C00F069802DE9F04B4FF00006002BC6
:100290001FBFB3FA83F503FA05F424FA05F65E40AE
:1002A00012BF1643B2FA82F502FA05F4C5F1200531
:1002B0001EBF22FA05FC44EA0C04203556EA044C21
:1002C0004FEA144418BF641C4FF000084FF00009B7
:1002D000904271EB030C39D3002919BFB1FA81F7B1
:1002E00001FA07F6B0FA80F700FA07F6C7F120071F
:1002F0001EBF20FA07FC46EA0C062037B6FBF4FCCA
:10030000A7EB0507103F07F01F0BCBF120062CFAD7
:1003100006F60CFA0BFB44BFB3460026202FA4BF01
:100320005E464FF0000B5BEA060C08BF4FF0010B76
:1003300019EB0B0948EB0608ABFB027C06FB02CC71
:100340000BFB03CCC01B71EB0C01C1E70B46024653
:1003500041464846BDE8F08B13B5084318BF4FF03F
:10036000FF300146AFF30080BDE81C40704700003D
:100370000FB4044910B503AA029800F003FB10BCA7
:100380005DF814FBA004002070B504468569006880
:10039000C10601D5302600E02026C00707D070BD79
:1003A000D4E9012130469047206A401C20626D1E2E
:1003B000F6D570BD70B5044685690078C00707D1D1
:1003C00070BDD4E9012120209047206A401C2062A2
:1003D0006D1EF6D570BD70B50C460546012A05D0D8
:1003E0002878800600D5EA69002302E0012305E0B1
:1003F0005B1C934202D2E05C0028F9D1A869E618A0
:10040000C01AA861286A184428622846FFF7BCFF72
:1004100004E0D5E9012114F8010B9047B442F8D368
:100420002846FFF7C7FF70BD2DE9F04106460024BE
:1004300010687529314616A510D0AFF3008000284A
:1004400002DA404213A507E031688A0701D512A5F8
:1004500002E0490704D511A5012401E0AFF30080B3
:1004600000210A2206F1240709E0B0FBF2FCB0FBF0
:10047000F2F302FB1C00303078541846491C002867
:10048000F3D123462A463046BDE8F04100F00ABACF
:10049000000000002D0000002B00000020000000E4
:1004A00070B504460D4621461068AFF300802188E0
:1004B000090502D50F4A7A4402E00E4A7A440E3208
:1004C000002104F1240305E000F00F060009965D09
:1004D0005E54491C0028F7D120780023000704D57A
:1004E000702D02D009B1022311322046BDE87040C0
:1004F00000F0D8B9282C03002DE9F05F89460446A6
:100500004FF0000ADFF824B1FB44C0F820A02046D9
:10051000E168884700287DD0252806D0D4E901214C
:100520009047206A401C2062F1E700255F46204684
:10053000E16888472028064607DB312E05D2B81926
:1005400010F8200C08B10543F1E7A80701D525F004
:100550000405C4F81CA00027C4F818A02A2E09D04E
:10056000304632F0AAFD38B304EB8708303EC8F8B5
:10057000186019E059F8041B204604EB87029161CA
:10058000E1688847012F064618D1E069002820DA83
:1005900025F020051DE0D8F8180000EB800006EBE0
:1005A00040003038C8F818002046E1688847064601
:1005B00032F083FD0028EED1012F0AD02E2E08D173
:1005C0002046E16888477F1C0646022F45F020053B
:1005D000C4DBA069002803DA404245F00105A061B0
:1005E000E80701D025F01005A6B1A6F141001928B1
:1005F00002D8203645F400654A463146204625603B
:100600004D46FFF7FBFD60B1012807D0ED1D25F039
:10061000070000E007E000F1080978E705F10409A8
:1006200075E730467AE7206ABDE8F09FFE2B0300AD
:1006300010B5044603E00DF063FB401C09D014F82C
:10064000010B05490028F6D1BDE810400A200DF045
:1006500057BB4FF0FF3010BDA004002040EA01035B
:10066000024630B59B0710D14FF0013400E008C2BC
:1006700008C91D1B9D4315EAC41FF8D013F0FF01E4
:1006800002F8011B0DD01B0AF8E711F8013B002B03
:1006900002F8013B05D011F8013B002B02F8013BA9
:1006A000F3D130BD10B5431C02E010F8011B71B14D
:1006B0008107FAD14FF0013202C88C1A8C4314EA38
:1006C000C211F9D0C01A0A0603D0C01E10BDC01A4C
:1006D00010BD0A0401D0801E10BD0902FCD0401ECE
:1006E00010BD032A40F2308010F0030C00F015809A
:1006F00011F8013BBCF1020F624498BF11F801CB25
:1007000000F8013B38BF11F8013BA2F1040298BF89
:1007100000F801CB38BF00F8013B11F0030300F0F3
:100720004381083AC0F0088051F8043B083A51F878
:1007300004CBA0E80810F5E7121D5CBF51F8043B9C
:1007400040F8043BAFF30080D20724BF11F8013B0F
:1007500011F801CB48BF11F8012B24BF00F8013B71
:1007600000F801CB48BF00F8012B704702F0FF03EF
:1007700043EA032242EA024200F00AB802F0FF0311
:1007800043EA032242EA024200F024B84FF000029A
:100790000429C0F0128010F0030C00F01B80CCF193
:1007A000040CBCF1020F18BF00F8012BA8BF20F801
:1007B000022BA1EB0C0100F00DB85FEAC17C24BF55
:1007C00000F8012B00F8012B48BF00F8012B7047FF
:1007D0004FF0000200B5134694469646203922BFDA
:1007E000A0E80C50A0E80C50B1F12001BFF4F7AF25
:1007F000090728BFA0E80C5048BF0CC05DF804EB07
:10080000890028BF40F8042B08BF704748BF20F874
:10081000022B11F0804F18BF00F8012B7047000029
:1008200030B44FF0013C50F8042B51F8043BCCFAA3
:1008300052F4D51A20D1FCB950F8042B51F8043BDE
:10084000CCFA52F4D51A17D1B4B950F8042B51F898
:10085000043BCCFA52F4D51A0ED16CB950F8042BE3
:1008600051F8043BCCFA52F4D51A05D1002CDAD059
:1008700030BC4FF00000704729BAB1FA81F111F095
:100880001801D1F120008440F2D1CA40CB4012F0CF
:10089000FF0213F0FF0330BCD01A70477047704757
:1008A000704770472DE9F0470D4699469246044639
:1008B00000F124080168880604D5E06921F01001E0
:1008C000216000E00120A84201DD471B00E0002775
:1008D000A1697A1902EB0900081AA0612078C00604
:1008E00002D42046FFF750FD002608E0D4E901219C
:1008F0001AF806009047206A401C761C20624E457C
:10090000F4DB2078C0060AD52046FFF73DFD06E05F
:10091000D4E9012130209047206A401C2062381E13
:10092000A7F10107F4DC07E0D4E9012118F805007C
:100930009047206A401C2062281EA5F10105F3DCC7
:100940002046FFF737FD2078000602D50220BDE8DB
:10095000F0870120FBE710B5436913B1AFF30080C6
:1009600001E0FFF738FD012010BD127800F12401ED
:100970000A7000224A700122EDE711684FF0FF3241
:10098000E9E70000074B70B50D467B4400F043F8E3
:100990000446284600F052F810B14FF0FF3070BD09
:1009A000204670BD73D3000010B5203AC0F00B8014
:1009B000B1E81850A0E81850B1E81850A0E8185055
:1009C000203ABFF4F5AF5FEA027C24BFB1E81850CB
:1009D000A0E8185044BF18C918C0BDE810405FEA2D
:1009E000827C24BF51F8043B40F8043B08BF7047A9
:1009F000D20728BF31F8023B48BF11F8012B28BFAE
:100A000020F8023B48BF00F8012B704701694A1CDF
:100A100002610878704700B58FB0CDE9013100213F
:100A2000059105497944CDE9031011466846FFF761
:100A300063FD0FB000BD0000E5FFFFFF007B00F08D
:100A400080007047754600F02BF8AE4605006946F9
:100A5000534620F00700854618B020B5FFF7FCFB91
:100A6000BDE820404FF000064FF000074FF00008AF
:100A70004FF0000BAC46ACE8C009ACE8C009ACE8EC
:100A8000C009ACE8C00921F007018D46704710B5D8
:100A90000446AFF300802046BDE81040FFF7C8BB16
:100AA00000487047E000002040F2D830C2F2000059
:100AB00000F026BD10B540F2B822C2F20002D2E921
:100AC000023101F1010C9942C2F80CC018DAD2E9E6
:100AD00000E11469A1EB0E014B1C04EB4301116111
:100AE0004FF448720CFB02E20224C6F6000404EB49
:100AF000420200F0C1FE002808BF10BDFEE700BFA3
:100B000002F13800BDE8104014F038BE70B582B074
:100B100040F2287405460020C2F2000441F20001B0
:100B20004FF6FF76CDE90000C4F200012A22C4E9A5
:100B30000206A0612046C4E9001201F0FBFB6946F1
:100B4000204601F09BFB206885EA060141622046B1
:100B500001F058FC022D13D320684FF6FE7100BF40
:100B6000426A92B28A420BD2426A92B28A4207D257
:100B7000426A92B28A4203D2426A92B28A42EFD366
:100B800040F22870C2F2000001F0E4FC02B070BD37
:100B900010B543F61444C4F201042068C00558BFE0
:100BA00010BD00F0B1FA4FF48070206010BD00005D
:100BB000B0B5B3F5804F034618D153F822C00020DA
:100BC000CCF6F0700CEA000CD1E9000ED1E9024538
:100BD00040EA0C0040EA0E10896940EA042040EA2D
:100BE00005400143002043F82210B0BD6FF0704172
:100BF000002043F82210B0BD2DE9F043D1E9003CBC
:100C00000246D1E9020ED1E90489D1E9066752F81A
:100C100023408025CFF6F0752C4044EA0C050543AF
:100C200045EA0E0545EA080545EA09052E430D6A21
:100C300037434E6A2F438D6A3743CE6A2F4337437B
:100C4000CE6B096B3743394308284FF0000008BFCB
:100C500041F0400142F82310BDE8F083F0B500EB0D
:100C600082025068D1E902E400F0404CD1E9003042
:100C7000D1E9045643EA0C03002743EA0010CFF6FB
:100C8000F07740EA0E20896907EB055540EA0440F9
:100C90002843FE36084340EA066100205160F0BD5B
:100CA000F0B587B00C464FF40031CDF806108DF842
:100CB000040001218DF81000A01CADF81210951E43
:100CC000069001A802210394ADF81450022602F008
:100CD00063F9022828D001A80221022602F05CF95B
:100CE000022821D001A80221022602F055F902288B
:100CF0001AD001A80221022602F04EF9022813D0D0
:100D000001A80221022602F047F902280CD007466A
:100D100020882A46000401BA48F6B940C0F603000C
:100D20003B46FFF725FB3E46304607B0F0BD0000CE
:100D300010B582B04FF4A140019001A9BA2003225E
:100D4000FFF7AEFF0446002802DD204602B010BDCA
:100D500048F68B40C0F603000121FFF709FB01A90B
:100D6000BA200322FFF79CFF04460128EDDA48F67B
:100D70008B40C0F603000221FFF7FAFA01A9BA205E
:100D80000322FFF78DFF04460028DEDC48F68B4087
:100D9000C0F603000321FFF7EBFA01A9BA200322F2
:100DA000FFF77EFF04460028CFDC48F68B40C0F6F4
:100DB00003000421FFF7DCFA01A9BA200322FFF7A0
:100DC0006FFF04460028C0DC48F68B40C0F60300E5
:100DD0000521FFF7CDFA204602B010BD70B584B0F2
:100DE00004464FF44030CDF80600BA208DF80400D8
:100DF00001A801210394012502F0CEF8012828D092
:100E000001A80121012502F0C7F8012821D001A87D
:100E10000121012502F0C0F801281AD001A8012102
:100E2000012502F0B9F8012813D001A801210125FC
:100E300002F0B2F801280CD00646208801220004F6
:100E400001BA48F60950C0F603003346FFF790FA9E
:100E50003546284604B070BDF0B583B002F022FBE1
:100E6000FFF766FFB0F1FF3F36DD00F071F802F0EA
:100E7000FBFA0020029001904FF4A340ADF802006D
:100E80000DF10201BA200A22FFF70AFF00281ED442
:100E90004FF4AD409DF804409DF805509DF8066064
:100EA0009DF80770ADF802000DF10201BA2003228F
:100EB000FFF7F6FE00280AD49DF8040046EA072250
:100EC00044EA052100F0030307A0FFF751FA0024CC
:100ED000204603B0F0BD00BF044612A0FFF7A8FBF8
:100EE000204603B0F0BD00BF3C3C2D4754502D4977
:100EF0004E464F2D3E3E20585F4D4158203D202507
:100F0000642C20595F4D4158203D2025642C2054ED
:100F1000524947474552203D203078253032780AE3
:100F2000000000003C3C2D4754502D4552524F527A
:100F30002D3E3E2049324320636F6D6D756E6963AF
:100F40006174696F6E204552524F522100000000BB
:100F500010B586B00020059044F28100049004A9E9
:100F6000BA200822FFF79CFE0446B0F1FF3F31DDB6
:100F70009DF81210352933D19DF817009DF81510F2
:100F80009DF813209DF814309DF816C0CDE900108F
:100F900048F65A50C0F603003521CDF808C0FFF7D7
:100FA000E7F99DF81200352811D19DF81300362875
:100FB0000DD19DF81400382809D19DF81500382866
:100FC00005D145F2D060C2F2010002210170204635
:100FD00006B010BD42A0FFF72BFB204606B010BDA7
:100FE0009DF8150040B39DF817E09DF813209DF87B
:100FF00014309DF816C0CDE9000E21A0CDF808C030
:10100000FFF7B6F99DF812003928E0D19DF81300DA
:101010003128DCD19DF814003528D8D19DF8150071
:101020003728D4D145F2D060C2F20100002101700E
:10103000204606B010BD00BF9DF817009DF8132094
:101040009DF814309DF816C0009019A0CDF804C08A
:10105000FFF78EF99DF812003928B8D19DF81300DA
:101060003128B4D19DF814003128B0D145F2D060B8
:10107000C2F2010001210170204606B010BD00BF80
:101080003C3C2D4754502D494E464F2D3E3E204965
:1010900043332056657273696F6E3A20256325636A
:1010A000256325635F25303278253032780A0000C9
:1010B0003C3C2D4754502D494E464F2D3E3E204935
:1010C00043322056657273696F6E3A20256325633B
:1010D00025635F25303278253032780A0000000021
:1010E0003C3C2D4754502D4552524F522D3E3E20F0
:1010F00047545020726561642076657273696F6E23
:10110000206661696C6564002DE9F04F97B00DF1C0
:101110002C0944F6816409F102002A211694FFF794
:1011200035FBBA2049460C22ADF82C40FFF7B8FD3C
:10113000B0F1FF3F40F39C809DF82E00002800F0A6
:10114000FE8041B2B1F1FF3F00F3F38000F00F05E4
:10115000052D00F2EE80022D1DD30DF1040808F1DB
:10116000020630462621FFF711FB45F68100ADF857
:1011700004006FF0070000EBC5076FF0050000EBFF
:10118000C502BA204146FFF78BFD09F10C0031463C
:101190003A46FFF7A6FA40F25830C2F20000B0F823
:1011A00002E0AE455CD9002D4FF6FF716DD0AEF177
:1011B00001026B1E0EF0030C4FF0000B032A4FF0E0
:1011C000000A80F0C580BCF1000F49D000EB0A088E
:1011D00098F8086009F103024FF0000A002400BFEC
:1011E00012F8347007F00F07BE4209D0A34204F191
:1011F0000104DEBF80F800A08180C180A542EFD14C
:10120000BCF1010F2CD098F809604FF0000A0024BF
:1012100012F8347007F00F07BE4209D0A34204F160
:101220000104DEBF80F800A08180C180A542EFD11B
:10123000BCF1020F14D098F80A704FF0000C002493
:1012400012F8346006F00F06B74209D0A34204F149
:101250000104DEBF80F800C08180C180A542EFD1CB
:1012600075B1691E032905F0030C13D2002232E088
:10127000014674A0FFF77CF817B0BDE8F08F00BFFF
:10128000BEF1000F54D04FF6FF7100224FF6FF73EE
:101290004BE000BF05F00C0E09F1130800226FF0BF
:1012A000040300BF09EBC204E178E77A01F00F0103
:1012B0008618317207F00F0118F83270E47E7172EF
:1012C00007F00F010432B17204F00F01964503F1EB
:1012D0002003F172E6D1BCF1000F1FD0D100CB1C6E
:1012E00019F80310871801F00F01BCF1010F3972D2
:1012F00014D0511CCB00033319F80370014407F0DC
:101300000F07BCF1020F0F7208D0911CCA00D31C4A
:1013100019F80320014402F00F020A7209EB0302DC
:10132000B2F80110B2F80330012202708180C3804C
:10133000458016A8FFF752FDB0F1FF3F02DD17B060
:10134000BDE8F08F35A0FFF773F917B0BDE8F08F57
:101350002EF0030809F103044FF0000A06E000BF75
:10136000B8F104080AF1040A3FF42DAF00EB0A02B9
:10137000127A002714F8376006F00F06B24209D03F
:10138000BB4207F10107DEBF80F800B08180C18059
:10139000BD42EFD14AF001020244127A002700BF99
:1013A00014F8376006F00F06B24209D0BB4207F1CD
:1013B0000107DEBF80F800B08180C180BD42EFD15F
:1013C0004AF002020244127A002700BF14F8376084
:1013D00006F00F06B24209D0BB4207F10107DEBF9B
:1013E00080F800B08180C180BD42EFD14AF0030295
:1013F0000244127A002700BF14F8376006F00F0687
:10140000B242ADD0BB4207F10107DEBF80F800B0A9
:101410008180C180BD42EFD1A2E700BF3C3C2D4797
:1014200054502D494E464F2D3E3E204932432077A1
:101430007269746520656E645F636D6420657272A5
:101440006F7221003C3C2D4754502D4552524F5253
:101450002D3E3E20493243207472616E7366657280
:10146000206572726F722E206572726E6F3A2564FB
:101470000A200A00B0B5002840D090F835100229A3
:1014800004BF0220B0BD02686FF00F034AF6AB2123
:10149000D2F800C053FA82F5CAF6AA21A5FB011EB4
:1014A0002CF0010111600021212311605160916035
:1014B000D1601161536144F640234FEA1E1CC0F60F
:1014C000030313F80C3040F2FF34A2435F2D4FF0BA
:1014D0003F0588BF0432C0E9162305FA03F3C0E9CB
:1014E0000F11C0E91111C0E913119360416580F833
:1014F000351080F834100846B0BD00BF0120B0BDE3
:10150000F0B581B004460020009040F29C00C2F289
:1015100000000268D4E9166048F2B5133768082164
:10152000C1F64E3381403942A2FB03250CD022681C
:1015300013685B0708D5136823F004031360B160D8
:10154000616D41F00101616501218140394208D09E
:1015500022685269120604D5B160616D41F0020142
:10156000616504218140394208D0226812689207DF
:1015700004D5B160616D41F00401616510218140C5
:10158000394217D020680268120713D5B16002688B
:101590000168520308D4C90508D4016821F0080184
:1015A0000160216C21B905E0080343D4216C09B125
:1015B00020468847E16D202000FA01F23A4245D0EA
:1015C00020680368DB0641D5B26094F835300268C4
:1015D000052B1FD122F016020260426922F0800220
:1015E0004261226C0AB9A26C1AB1026822F00802A8
:1015F00002603F208840B060012084F83500216DF2
:101600000020002984F8340058D02046884701B0D3
:10161000F0BD00BF0168520310D4C90512D401689F
:1016200021F010010160012084F83500002084F8C9
:10163000340007E0A16C0029BAD1BBE7080301D44C
:10164000616C00E0E16B09B120468847606DA8B38A
:10165000606DC0072ED0052084F835002068A90AE7
:10166000026822F001020260009A01328A4200926E
:101670001AD80268D20717D0009A01328A42009223
:1016800012D80268D2070FD0009A01328A42009223
:101690000AD80268D20707D0009A01328A42009223
:1016A00002D80268D207DFD1012084F8350000207B
:1016B00084F83400E16C09B12046884701B0F0BDE0
:1016C0002DE9F041044600F025FA002C4ED00546E5
:1016D000022084F835000020216884F8340008686E
:1016E00020F0010008600868C00708D000F012FA76
:1016F000401B05286CD821680868C007F6D1086827
:1017000048F23F02CFF21002D4E90135024004F161
:101710000C0E9EE8C1511A432A431043304338430C
:1017200040EA0800626A40EA0C00042A40EA0E031C
:1017300020D1D4E90A5E206B4EEA03021043086010
:101740004869BEF1000F20F0030040EA050040F0B8
:10175000040C15D0B8F5005F42D0B8F1000F51D19C
:10176000022D52D0012D47D055B94EE00120BDE8E1
:10177000F08100BF0B60486920F0070040EA020CCE
:101780006FF00F004AF6AB2250FA81F0CAF6AA2297
:10179000A0FB02231A0944F64023C0F603039A5C17
:1017A00040F2FF335F284FF03F00C1F814C021EA38
:1017B000030100FA02F088BF0431C4E91612886000
:1017C000002301220020636584F83520BDE8F08104
:1017D000032220230320636584F83520BDE8F081CF
:1017E000032DCDD8012240230120DFE805F0030EB0
:1017F000030500BFE7E700BFAEF1C070B0FA80F0AC
:10180000400904E0032D04D3BAD1CEF300600028D0
:10181000B6D0012240230120636584F83520BDE85D
:10182000F081000090F83430012B04BF0220704793
:1018300090F83530012B09D1052916D8DFE801F0E1
:10184000040C0E10121400BFC2630EE0012100222E
:1018500080F8342008467047026406E0426404E0E1
:10186000826402E0C26400E002650021002280F888
:10187000342008467047000070B590F834C0BCF1C1
:10188000010F46D04FF0010C80F834C0D0F858E07A
:1018900090F835C0BCF1010F38D14FF0020C80F840
:1018A00035C04FF0000CC0F854C0D0F800C08468B8
:1018B000056CC06DDCF80060402C26F48026CCF866
:1018C0000060CCF804300B4604BF13460A463F21A3
:1018D00001FA00F0CCF80830CCF80C20CEF8080063
:1018E000DCF8000040F01600CCF800002DB1DCF868
:1018F000000040F00800CCF80000DCF8000040F0E8
:101900000100CCF80000002070BD00BF002180F86D
:101910003410022070BD0000B0B5044600F0FAF8A3
:10192000054640F20000C2F200000078611C18BFBA
:10193000044400BF00F0EEF8401BA042FAD3B0BD53
:101940002DE9F04F82B000F13E4241F6004502F130
:10195000FF77C4F2020508224FEAB726A84208BF63
:101960000722072E38BF4FEAB7224FF0010E00249E
:1019700000274FF00008009208E000BF023708F18E
:101980000108202F04F1040400F0B4800E680EFA60
:1019900008F916EA090FF1D0D1F804A00AF0030BF8
:1019A000ABF10106012E19D80322866802FA07FE60
:1019B000CA6826EA0E06BA40324382604268CAF319
:1019C000001522EA090205FA08F54FEA480C6FEA09
:1019D0000E064FF0010E2A4342600BE00322BA408C
:1019E000D643BBF1030FBC4604D1BC464FF0030BFA
:1019F00024E000BFC2688D68324005FA0CF52A4326
:101A0000BBF1020FC26019D16FF0030202EA580263
:101A1000024404F01C030F25D2F820E005FA03FA73
:101A20000D692EEA0A0E05FA03F343EA0E03136268
:101A3000D1F804A04FF0010E0AF0030B02680BFA74
:101A40000CF332401A431AF4403F026096D0002251
:101A500043F644030192C4F202031A6843F6004CB1
:101A600042F480421A601A68C4F2010C02F4804207
:101A70000192019A28F003024FF6084A6244CFF619
:101A8000FF7A52F80A3004F00C060F25B540AB433C
:101A9000009D05FA06F6334342F80A30DCF80020D0
:101AA0004B6842EA0906DD0358BF22EA0906CCF872
:101AB0000060DCF804209D0342EA090658BF22EAD0
:101AC0000906CCF80460DCF80820DD0242EA0906C9
:101AD00043F60C4558BF22EA0906CCF80860C4F268
:101AE00001052A689B0242EA090658BF22EA090654
:101AF0002E6043E702B0BDE8F08F000000690840A7
:101B000018BF012070470000002A08BF0904816146
:101B10007047000045F2D460C2F2010000687047CF
:101B200040F2000045F2D461C2F20000C2F20101AD
:101B300000780A68104408607047000080B543F6DA
:101B40000040C4F20200016841F4007101600168C4
:101B500041F480610160016841F4807101600320FB
:101B600000F06AF80F2000F005F800F027F80020D8
:101B700080BD000070B540F20006C2F2000640F2DF
:101B80009C013278C2F200014FF47A730968B3FB0A
:101B9000F2F20446B1FBF2F1084600F055FB0F2CBF
:101BA0004FF0010508D838B94FF0FF302146002228
:101BB000002500F015F87460284670BD70470000DD
:101BC000002848BF704700F01F01012202FA01F10E
:101BD0004EF200124009CEF2000242F82010704787
:101BE00010B54EF60C5CCEF2000CDCF80030C3F3FE
:101BF000022E8EF00704042C28BF0424BEF1030338
:101C00004FF0FF3E0EFA04F438BF0023A143994081
:101C10000EFA03F39A4300F00F03043B11436344AD
:101C200009010C3300F16042B0F1FF3FC8BF02F57B
:101C30006443197010BD00004EF60C51CEF2000145
:101C40000A684FF6FF031A4060F30A2242F08060F0
:101C500040F0FD70086070472DE9F041002800F069
:101C60008B8043F60808C4F202080446D8F8F8034B
:101C70000D4600F00700884207D288F8F853D8F8DC
:101C8000F80300F00700A84276D12068810717D535
:101C9000410705D5D8F8001041F4E051C8F800100C
:101CA000010705D5D8F8001041F46041C8F80010CC
:101CB000D8F80010A26821F0F0011143C8F8001014
:101CC000C0073FD1D8F8F80300F00700A84207D9B1
:101CD00088F8F853D8F8F80300F00700A8424BD171
:101CE0002068410707D5D8F80010E26821F4E051D8
:101CF0001143C8F80010000708D5D8F80000216982
:101D000020F4604040EAC100C8F8000000F07CF810
:101D1000D8F8001043F22812C1F30311C0F60302F1
:101D2000515C40F29C0220FA01F140F20400C2F240
:101D300000000068C2F200021160FFF71BFF0020E4
:101D4000BDE8F0816068811E022907D258F8081C9E
:101D500089015CBF0120BDE8F08111E0012807D1B5
:101D600058F8081C89035CBF0120BDE8F08107E03A
:101D700058F8081C890703D40120BDE8F08100BF92
:101D8000D8F8001021F003010843C8F80000FFF75D
:101D9000C1FE064641F28837D8F80000616800F0BD
:101DA0000C00B0EB810F8DD0FFF7B4FE801BB84262
:101DB000F2D90320BDE8F08140F29C0043F608010F
:101DC000C2F20000C4F202010068096843F238124E
:101DD000C1F38221C0F60302515CC8407047000085
:101DE00040F29C0043F60801C2F20000C4F2020176
:101DF0000068096843F23812C1F34231C0F60302A9
:101E0000515CC8407047000010B543F60404C4F2AA
:101E10000204606800F00C0008280BD0042819BFE9
:101E200042F20040C0F2F40047F64000C0F27D10DC
:101E300010BD00BF206821682368490247F64001B1
:101E4000C0F27D1100F03F02C3F388105CBF42F284
:101E50000041C0F2F401A1FB00010023FEF70FFADC
:101E600021680222C1F3014102EB4101B0FBF1F014
:101E700010BD00002DE9F04182B000286AD0044670
:101E8000007843F60006C007C4F202060BD0B06823
:101E900000F00C00042840F0A1803068800302D5D7
:101EA0006068002856D0207880071AD5B06810F0F6
:101EB0000C0F09D0B06800F00C00082840F0A88092
:101EC0007068400200F1A4803068800702D5E068A5
:101ED00001283FD13068216920F0F80040EAC100B4
:101EE00030602078000739D4207840074ED4A569A7
:101EF0005DB3B06800F00C00082840F0BD80012DF3
:101F000028D07068E16900F480028A4222D1216AF7
:101F100000F03F028A421DD147F6C071626A01405B
:101F2000B1EB821F16D1A26A0023CFF6FF7303EB39
:101F3000C23200F440316FF30F0291420AD1E16ADC
:101F400000F07060B0EB016F04D1002002B0BDE87A
:101F5000F08100BF012002B0BDE8F0816069002877
:101F600040F20000C4F2472076D00121C0F8801E64
:101F7000FFF7D0FD054600BF706F8007B4D4FFF7B0
:101F8000C9FD401B0228F7D9DDE000BF306C10F01E
:101F900080580AD100200190306C40F080503064AD
:101FA000306C00F080500190019847F20007C4F2B5
:101FB00000073868C00541D4386840F48070386044
:101FC000FFF7A8FD054600BF3868C00536D4FFF707
:101FD000A1FD401B0228F7D9B5E000BFB06800F0B2
:101FE0000C00082803D1706840023FF556AF6068C6
:101FF000B0F5803F07D0B0F5A02F40F08D8030685D
:1020000040F480203060306840F4803030608DE0F3
:10201000E068002852D00020C4F24720012101606E
:10202000FFF778FD054600BF306880073FF552AFE7
:10203000FFF770FD401B0228F6D984E0A068012854
:1020400005D005284ED1306F40F004003067306F66
:1020500040F0010030674FE00021C0F8801EFFF71C
:1020600059FD0546706F80077FF53EAFFFF752FDC3
:10207000401B0228F6D966E00027C4F2472700205B
:102080003866FFF747FD022D05460BD13068800109
:102090005ED5FFF73FFD401B02284FF00300F5D946
:1020A00054E700BF306880017FF54FAFFFF732FD86
:1020B000401B02284FF00300F4D947E70020C4F288
:1020C000472000210160FFF725FD054630688007A5
:1020D0007FF507AFFFF71EFD401B02284FF00300FE
:1020E000F4D933E7316F002821F001013167316FF6
:1020F00021F0040131674DD0FFF70CFD054641F298
:10210000883700BF306F800756D4FFF703FD401BB0
:10211000B842F7D917E000BF3168002821F48031B8
:102120003160316821F4802131604FD0FFF7F2FC3B
:10213000054600BF306880033FF5B5AEFFF7EAFC07
:10214000401B6428F6D9032002B0BDE8F08100BF2F
:1021500004F11C052FCD08430021CFF6FF7140EAA2
:10216000821001EBC3316FF30F0140EA05600843B1
:10217000706001203866FFF7CDFC044630688001AE
:102180003FF5E3AEFFF7C6FC001B02284FF003004B
:10219000F4D9DBE6FFF7BEFC054641F2883700BF05
:1021A000306F800708D5FFF7B5FC401BB8424FF0F1
:1021B0000300F5D9CAE600BFB8F1000F7FF497AE6F
:1021C000306C20F08050306491E600BFFFF7A2FC35
:1021D000054600BF306880037FF565AEFFF79AFCC7
:1021E000401B64284FF00300F4D9AFE6002804BF79
:1021F0000120704770B5044690F8490015460E4618
:1022000028B9002084F84800204600F01BF8206818
:1022100004F10801FEF7F0FC2068A2683146FEF7E1
:102220001DFDD4E90102236B2946FEF7C1FC20689D
:10223000A16850F8212042F0010240F8212000203E
:1022400070BD000070470000411E0020B0EB116F10
:102250001CBF012070474EF21002CEF20002516006
:102260004EF62351CEF20001F0230B70072190604F
:1022700011607047704700007047000010B590F87B
:102280003C20012A4FF0020251D080F83D20026824
:10229000D2F804E0D2F808C00C682EF07003234393
:1022A00041F2FF74C4F20004A24253600EDC40F21B
:1022B000FF73C4F200039A4216DCB2F1804F2BD0B8
:1022C00040F20043C4F2000324E000BF40F2FF33B9
:1022D000C4F201039A4213DC41F60003C4F2000386
:1022E0009A4219D0002313E040F60003C4F2000321
:1022F0009A4211D040F60043C4F200030AE000BF46
:1023000044F20003C4F201039A4205D040F20043B4
:10231000C4F201039A4204D149682CF080031943A6
:1023200091600121002280F83D1080F83C20104689
:1023300010BD0000002804BF0120704710B50446FE
:1023400090F83D0028B9002084F83C00204600F0B9
:102350001FF8022084F83D002068211D00F0E6FFF0
:10236000012084F8460084F83E0084F83F0084F899
:10237000400084F8410084F8420084F8430084F867
:10238000440084F8450084F83D00002010BD0000A2
:1023900080B582B0006841F20041C4F20001884279
:1023A00016D041F20001C4F2000188420ED1002093
:1023B000019043F64000C4F20200016841F01001B0
:1023C0000160006800F010000190019802B080BD2B
:1023D0000020009043F64000C4F202000168002291
:1023E00041F0200101600068002100F02000009011
:1023F00000983720FFF7F4FB372002B0BDE880409B
:10240000FFF7DEBB90F83D1001291CBF012070478B
:10241000022180F83D10006841F2FF71C4F2000112
:1024200088420DDC40F2FF71C4F20001884215DCE5
:10243000B0F1804F2AD040F20041C4F2000123E005
:1024400040F2FF31C4F20101884213DC41F6000181
:10245000C4F20001884219D0002113E040F60001C7
:10246000C4F20001884211D040F60041C4F20001DC
:102470000AE000BF44F20001C4F20101884205D025
:1024800040F20041C4F20101884206D1816801F0A6
:102490000701062904BF00207047016841F00101CF
:1024A000016000207047000090F83D1001291CBF1A
:1024B00001207047022180F83D10006841F2FF7250
:1024C000C168C4F20002904241F00101C1600DDC1C
:1024D00040F2FF71C4F20001884215DCB0F1804F78
:1024E0002AD040F20041C4F2000123E040F2FF3163
:1024F000C4F20101884213DC41F60001C4F200017C
:10250000884219D0002113E040F60001C4F2000116
:10251000884211D040F60041C4F200010AE000BF39
:1025200044F20001C4F20101884205D040F20041AA
:10253000C4F20101884206D1816801F00701062931
:1025400004BF00207047016841F0010101600020D4
:10255000704700000146006841F21113026A1A42F6
:1025600004D00122002081F83D207047026A40F229
:1025700044431A42F5D1026822F0010202600122AE
:10258000002081F83D2070477047000010B50168B9
:1025900004460869800744BFC8685FEA807039D480
:1025A0000869400744BFC8685FEA40703ED40869C4
:1025B000000744BFC8685FEA007045D40869C006D8
:1025C00044BFC8685FEAC0604AD40869C0071CBF3E
:1025D000C8685FEAC07051D10869000644BFC86886
:1025E0005FEA006052D40869400644BFC8685FEAE9
:1025F000406053D40869800646BFC8685FEA8060BF
:1026000010BD6FF0200220460A61BDE81040FFF7C0
:1026100033BE00BF6FF00200086101202077886997
:10262000800743D02046FFF7AFFF45E06FF004007E
:10263000086102202077886910F4407F40D020464E
:10264000FFF7A2FF42E000BF6FF00800086104201E
:102650002077C86980073DD02046FFF795FF3FE00F
:102660006FF01000086108202077C86910F4407FDF
:102670003AD02046FFF788FF3CE000BF6FF0010032
:102680000861204600F03EF82168A5E76FF0800061
:1026900008612046FFF7EEFD2168A4E76FF04000D7
:1026A0000861204600F038F82168A3E7204600F0D2
:1026B00025F8204600F024F82168002020776FE7F5
:1026C000204600F01BF8204600F01AF82168002090
:1026D00020776CE7204600F011F8204600F010F853
:1026E00021680020207769E7204600F007F820469F
:1026F00000F006F821680020207766E770470000A8
:102700007047000040F27071C2F20001884218BFA9
:102710007047012029F04EBE70470000002804BF1A
:102720000120704710B5044690F83D0028B90020FC
:1027300084F83C00204600F021F8242084F83D0075
:102740002068C16821F40051C160204600F030FFCC
:102750002068016921F490410161416921F02A0159
:102760004161C16841F40051C16000202021206412
:1027700084F83D1084F83E1010BD000080B586B08E
:10278000016841F20000C4F20100814202D006B0AB
:1027900080BD00BF002143F630020191C4F2020265
:1027A000536900F5704043F010035361536903F01F
:1027B00010030193019B0191136843F0010313601F
:1027C000126802F001020192019A4FF4C062019274
:1027D0000222CDE90221032104910721059101A9DB
:1027E000FFF7AEF8252000210122FFF7F9F9252097
:1027F000FFF7E6F906B080BD2DE9F04381B004464D
:1028000090F83D0020280DD10F4600294FF001001F
:1028100000F060811646002A00F05C8194F83C00CC
:10282000012803D1022001B0BDE8F083012084F823
:102830003C004FF0000921201D46C4F8409084F868
:102840003D00FFF767F9A684E684A1688046B1F5EC
:10285000805F40F09D80206900281CBF38464F46AD
:102860003E46074684F83C90E08C002800F09780B4
:10287000681C00F097803DB9206828E0FFF74AF90E
:10288000A0EB0800A8422BD8206801680906F5D5FE
:1028900017B117F8011B04E036F8021B00276FF38D
:1028A0005F214160E18C0139E184E18C0029ECD1A8
:1028B00098E000BF36F8021B00276FF35F214160EC
:1028C000E18C0139E184E18C002900F08B80016802
:1028D000090605D5002FEDD017F8011BEFE700BF63
:1028E000206850E8030F216820F4D07041E803020B
:1028F000BAB3206850E8030F216820F4D07041E893
:10290000030272B3206850E8030F216820F4D070EE
:1029100041E803022AB3206850E8030F216820F43D
:10292000D07041E80302002ADAD11AE0206850E8AA
:10293000050F216820F0010041E80502DAB12068A6
:1029400050E8050F216820F0010041E8050292B12E
:10295000206850E8050F216820F0010041E80502D9
:102960004AB1206850E8050F216820F0010041E8D5
:102970000502002ADAD1202084F83D0084F83E00C8
:10298000002084F83C00032001B0BDE8F08300BFC4
:10299000002684F83C90E08C00287FF469AF206822
:1029A00020E000BF206802E00168090609D4016840
:1029B00009065FBF01685FEA016101685FEA0161C2
:1029C000F2D51FB117F8011B05E000BF36F8021B56
:1029D00000276FF35F214160E18C0139E184E18CD4
:1029E0000029E4D1016849060FD4FDB1691C17D153
:1029F000016849065FBF01685FEA416101685FEAFB
:102A0000416102D401684906F2D5202084F83D00D6
:102A1000002001B0BDE8F083206800684006F4D4CF
:102A2000FFF778F8A0EB0800A842F5D9206850E835
:102A3000030F216820F4D07041E80302BAB3206884
:102A400050E8030F216820F4D07041E8030272B30C
:102A5000206850E8030F216820F4D07041E8030299
:102A60002AB3206850E8030F216820F4D07041E8B1
:102A70000302002ADAD11AE0206850E8050F216825
:102A800020F0010041E80502DAB1206850E8050FA6
:102A9000216820F0010041E8050292B1206850E869
:102AA000050F216820F0010041E805024AB12068C5
:102AB00050E8050F216820F0010041E80502002AD6
:102AC000DAD1202084F83D0084F83E00002084F80C
:102AD0003C00032001B0BDE8F08300002DE9F04385
:102AE00081B040F60044C4F2020415468946074608
:102AF0002046082101224FF00108FFF705F8204683
:102B000080210122FFF700F80520FDF7FFFF204696
:102B100008210022FEF7F8FF0520FDF7F7FF204609
:102B200080210022FEF7F0FF0520FDF7EFFF47F0C0
:102B3000010000F05DF9204608210122FEF7E4FFC4
:102B40000520FDF7E3FF204680210122FEF7DCFF90
:102B50000520FDF7DBFF20460821FEF7CFFF0746E3
:102B6000204680210022FEF7CFFF0520FDF7CEFF93
:102B7000002F40F026811BE1204608210122FEF7AC
:102B8000C3FF0520FDF7C2FF204680210122FEF78A
:102B9000BBFF0520FDF7BAFF204680210022FEF78B
:102BA000B3FF0520FDF7B2FF204608210022FEF703
:102BB000ABFF204680210122FEF7A6FF0520FDF78E
:102BC000A5FF204608210122FEF79EFF2046802116
:102BD0000122FEF799FF0520FDF798FF2046082106
:102BE000FEF78CFF0746002820464FF080014FF08B
:102BF000000218BF0127FEF787FF0520FDF786FFBB
:102C0000204680210122FEF77FFF0520FDF77EFF91
:102C100020460821FEF772FF002818BF012040EA75
:102C20004706204680210022FEF76EFF0520FDF7B3
:102C30006DFF204680210122FEF766FF0520FDF78B
:102C400065FF20460821FEF759FF07460028204669
:102C50004FF080014FF0000218BF0127FEF754FF2C
:102C60000520FDF753FF780040EA860620468021C4
:102C70000122FEF749FF0520FDF748FF2046082105
:102C8000FEF73CFF002818BF0120064420468021A3
:102C90000022FEF739FF0520FDF738FF204680218E
:102CA0000122FEF731FF0520FDF730FF2046082105
:102CB000FEF724FF0746002820464FF080014FF022
:102CC000000218BF0127FEF71FFF0520FDF71EFFBA
:102CD000780040EA8606204680210122FEF714FF94
:102CE0000520FDF713FF20460821FEF707FF002807
:102CF00018BF01200644204680210022FEF704FF71
:102D00000520FDF703FF204680210122FEF7FCFE8F
:102D10000520FDF7FBFE20460821FEF7EFFE0746E3
:102D2000002820464FF080014FF0000218BF012715
:102D3000FEF7EAFE0520FDF7E9FE780040EA860688
:102D4000204680210122FEF7DFFE0520FDF7DEFE92
:102D500020460821FEF7D2FE002818BF01200644B5
:102D6000204680210022FEF7CFFE0520FDF7CEFE93
:102D700020460821002209F8016B013DFEF7C4FE40
:102D80000520FDF7C3FE204680210122FEF7BCFE90
:102D90000520FDF7BBFE204680210022FEF7B4FE91
:102DA0000520FDF7B3FE204608210122FEF7ACFE08
:102DB000A8B201283FF4E0AE00287FF407AF4FF03F
:102DC0000008204608210022FEF79EFE20468021B2
:102DD0000122FEF799FE0520FDF798FE2046082106
:102DE0000122FEF791FE404601B0BDE8F0830000ED
:102DF000B0B540F60044C4F202040546C2092046BC
:102E00000821FEF781FE0520FDF780FE2046802187
:102E10000122FEF779FE0520FDF778FE204680218D
:102E20000022FEF771FE0520FDF770FEC5F380124B
:102E300020460821FEF768FE0520FDF767FE2046C4
:102E400080210122FEF760FE0520FDF75FFE20468F
:102E500080210022FEF758FE0520FDF757FEC5F33E
:102E6000401220460821FEF74FFE0520FDF74EFEDA
:102E7000204680210122FEF747FE0520FDF746FE91
:102E8000204680210022FEF73FFE0520FDF73EFE92
:102E9000C5F3001220460821FEF736FE0520FDF797
:102EA00035FE204680210122FEF72EFE0520FDF78B
:102EB0002DFE204680210022FEF726FE0520FDF78C
:102EC00025FEC5F3C00220460821FEF71DFE0520A1
:102ED000FDF71CFE204680210122FEF715FE05208D
:102EE000FDF714FE204680210022FEF70DFE05208E
:102EF000FDF70CFEC5F3800220460821FEF704FE14
:102F00000520FDF703FE204680210122FEF7FCFD8F
:102F10000520FDF7FBFD204680210022FEF7F4FD91
:102F20000520FDF7F3FDC5F3400220460821FEF71A
:102F3000EBFD0520FDF7EAFD204680210122FEF78A
:102F4000E3FD0520FDF7E2FD204680210022FEF78B
:102F5000DBFD0520FDF7DAFD05F001022046082122
:102F6000FEF7D2FD0520FDF7D1FD2046802101228C
:102F7000FEF7CAFD0520FDF7C9FD2046802100228D
:102F8000FEF7C2FD204608210122FEF7BDFD052007
:102F9000BDE8B040FDF7BABD70B519B3041D4D1EB4
:102FA000002600BF34F8023C14F8040C6168228843
:102FB000DB0707D1D2B200F017F8B54206F10101E4
:102FC00006D109E0FFF78AFDB54206F1010103D001
:102FD0000C3400280E46E5D0002818BF01460846EC
:102FE00070BD00BF002070BD2DE9F04381B040F6F8
:102FF0000044C4F202041546894680462046082152
:103000000022FEF781FD204680210122FEF77CFD93
:103010000520FDF77BFD204608210122FEF774FD07
:103020004FF47A76204608210122FEF76DFD2046F6
:1030300080210122FEF768FD0520FDF767FD20468F
:1030400008210022FEF760FD0520FDF75FFD204608
:1030500080210022FEF758FD0520FDF757FD404670
:10306000FFF7C6FE204608210122FEF74DFD052090
:10307000FDF74CFD204680210122FEF745FD05208D
:10308000FDF744FD20460821FEF738FD074620469F
:1030900080210022FEF738FD0520FDF737FD2FB116
:1030A000013EBFD14FF0010830E000BF65B34FF0E3
:1030B000010800BF99F80000FFF79AFE204608219A
:1030C0000122FEF721FD0520FDF720FD204680218D
:1030D0000122FEF719FD0520FDF718FD2046082105
:1030E000FEF70CFD0746204680210022FEF70CFD6E
:1030F0000520FDF70BFD4FB9013D280609F1010937
:10310000D8D14FF0000801E04FF000082046082118
:103110000022FEF7F9FC204680210122FEF7F4FC94
:103120000520FDF7F3FC204608210122FEF7ECFC08
:10313000404601B0BDE8F083B0B582B0002043F650
:1031400030010190C4F202010A6840F2D83442F41E
:1031500080020A600968C2F2000401F48001019152
:10316000019946F22841C4F20201C4E9001004F1B9
:10317000100180224FF0040C4FF4005E4FF4006306
:103180004FF4007581E80940E0614FF40031C4E973
:103190000A0020632046C4E90225C4E9081CFEF7A2
:1031A00069F92046FEF78CFA40F6B522C0F6000217
:1031B00020460021FEF736FB392000210022FEF7D1
:1031C0000FFD392002B0BDE8B040FEF7F9BC0000A9
:1031D00050B1012818BF7047002241F20040C4F2EC
:1031E00002004021FEF790BC012241F20040C4F2EF
:1031F00002004021FEF788BC50B1012818BF70477B
:10320000002241F20040C4F202008021FEF77CBCA3
:10321000012241F20040C4F202008021FEF774BC9A
:1032200060B1012818BF7047002241F20040C4F28B
:1032300002004FF48071FEF767BC00BF012241F22B
:103240000040C4F202004FF48071FEF75DBC000044
:10325000FEF766BCB0B592B0002443F64000CDE95D
:103260000A44CDE908440594CDE90344CDE901447D
:103270000094C4F202000168022541F0805101600F
:10328000006800F080500090009847F20000009421
:10329000C4F20000016841F480410160006800F45C
:1032A000804000900098012006904FF480300790F5
:1032B0004FF480000D9019200E904FF4A870CDE9C6
:1032C0000F050420119006A80C95FEF7D3FD08B158
:1032D000FEE700BF0F20CDE901054FF4A050049098
:1032E0004FF48050059001A805210394FEF7B4FC2B
:1032F00010B100BFFEE700BF12B0B0BD4EF688505F
:10330000CEF20000016841F47001016070470000D6
:1033100010B540F27074C2F200042046FFF736F98F
:103320002046BDE81040FFF7BFB8000010B540F6DA
:10333000FF3E0368C4F2000E40F2004C7045C4F238
:10334000010C27DCB0F1804F31D040F20042C4F2D2
:10335000000290422BD040F60002C4F200029042DC
:1033600025D041F6FF72C4F20002904229DC70457C
:103370003CDCB0F1804F5FD040F20042C4F200026A
:10338000904259D040F60002C4F20002904253D05D
:1033900056E000BF40F60042C4F20002904206D060
:1033A000604504D00022C4F201029042D9D14A689B
:1033B00023F07003134341F6FF72C4F200029042FF
:1033C000D5DD43F6FF72C4F20102904222DC42F2E4
:1033D0000002C4F2000290422ED00022C4F2010288
:1033E000904229D0604527D02AE000BF40F6004235
:1033F000C4F2000290421FD041F60002C4F2000263
:10340000904219D041F60042C4F20002904213D01B
:1034100016E000BF44F20002C4F2010290420BD059
:1034200044F60002C4F20102904205D044F2004288
:10343000C4F20102904203D1CA6823F440731343DB
:1034400023F080024B69D1F800E08C681A430260D7
:10345000C46240F48062C0F828E0624504BF096994
:1034600001630121416110BD80B586B04FF48070C9
:1034700001904FF4881002900020039003200490E4
:1034800041F60000C4F2020001A9FEF759FA172024
:1034900001210122FEF7A4FB1720FEF791FB06B0E5
:1034A00080BD00002DE9F04F85B04FF0000843F6D5
:1034B0003000CDF80080C4F20200016840F60044FC
:1034C00041F0080101600168C4F2020401F0080142
:1034D00000910099CDF8008001686E4641F04001EE
:1034E000016000684FF0030900F040000090009870
:1034F000802000901120CDE9010820463146CDF80A
:103500000C90FEF71DFA0820009020463146FEF789
:1035100017FA402000904FF0010A0227204631465A
:10352000CDF804A0CDE90279FEF70AFA04F540656A
:103530004FF4807B28463146CDF800B0FEF700FA04
:103540006E4628463146CDE900BACDE90279FEF74C
:10355000F7F9204640210022FEF7D6FA0120FEF7B7
:10356000DBF9204640210122FEF7CEFA0120FEF7CA
:10357000D3F928463146CDE900B8CDE90289FEF7F6
:10358000DFF94FF4881001A981E801036946284654
:10359000CDF800B0FEF7D4F9172001210122FEF783
:1035A0001FFB1720FEF70CFB05B0BDE8F08F0000F5
:1035B00010B504460068D4E902C22369016921F408
:1035C000405111430161626943EA0C01E36911430F
:1035D000C268194349F20C639A431143C1604169BF
:1035E000A26921F4407141F20043114340F480622A
:1035F000C4F201039A42416102D1FEF7F1FB01E0FE
:10360000FEF7DAFBE16963681922B1F5004FA0FB10
:1036100002011FD15A00DB0FFCF731FE48F21F51A7
:10362000C5F2EB11A0FB01235A096FF0630302FB03
:103630000300322303EBC000A0FB01014FF4F8703C
:1036400000EA111000EB0210C1F342112268084396
:10365000906010BD9A009B0FFCF711FE48F21F51BD
:10366000C5F2EB11A0FB01235A096FF0630302FBC3
:103670000300322303EB0010A0FB0101F02000EA5D
:10368000511000EB0210C1F343112268084390600F
:1036900010BD000040F25C40C2F20000006801680A
:1036A000890658BF70474168C9B241607047000041
:1036B000B0B540F27424C2F200042046402103F069
:1036C000DDFD48F62930C0F600001421002228F064
:1036D000CDFE40F22C25C2F2000568600120287062
:1036E000204603F09BFD0146686829B128F0C4FF1D
:1036F00000202870B0BD00BF28F0AEFF0020287069
:10370000B0BD000070B50346B1F90000B2F9004049
:10371000B1F902C0B2F90250B1F904E0B2F90460A3
:10372000A042B1F90610B2F90620C8BF0446AC4564
:103730001C80C8BF6546B6455D80B8BF76469142DD
:103740009E80B8BF0A460020B4424FF00001D8BFA7
:1037500001219542D8BF01200840DA8070BD0000E9
:103760002DE9F04381B00C46B0F90070B1F90010BA
:103770008F423DDBB0F90260B4F902108E4237DBB4
:10378000B0F90490B4F90410894531DCB0F9068031
:10379000B4F9060080452BDC15466AB3694620461D
:1037A0002A46ADF80070ADF8026000F097F8F8B165
:1037B000694620462A46ADF80090ADF8026000F058
:1037C0008DF8A8B1694620462A46ADF80070ADF8DC
:1037D000028000F083F858B1694620462A46ADF8C9
:1037E0000090ADF8028000F079F801B0BDE8F083F8
:1037F000002001B0BDE8F083012001B0BDE8F083F6
:10380000B0F90020B1F904309A4213DCB0F9042079
:10381000B1F900309A420DDBB0F90220B1F906305F
:103820009A4207DCB0F90600B1F902108842A4BF41
:1038300001207047002070472DE9F04381B00C460D
:10384000B0F90460B1F900108E4211DBB0F90670D6
:10385000B4F902108F420BDBB0F90080B4F9041008
:10386000884505DCB0F90290B4F90600814503DD16
:10387000012001B0BDE8F0831546EAB16946204653
:103880002A46ADF80080ADF8029000F027F898B90C
:10389000694620462A46ADF80060ADF8029000F077
:1038A0001DF848B9694620462A46ADF80080ADF8B3
:1038B000027000F013F818B1002001B0BDE8F083E9
:1038C000694620462A46ADF80060ADF8027000F067
:1038D00005F880F0010001B0BDE8F0832DE9F0416A
:1038E000B1F90030B0F90040A3420DDBB0F904E0BB
:1038F000734509DCB1F902C0B0F902108C4503DB55
:10390000B0F90650AC4503DD0020BDE8F08100BFF2
:10391000012A54DBAEEB0400013086B200EBD63056
:1039200006B2681A013087B200EBD73007B24FEA0F
:1039300066087810B8EB670FB8BF70109042A8BF48
:103940001046021917B24218BB4216B2D8BFB4458E
:1039500016DD2A1ABB4212B22CDC94452ADB391838
:1039600009B2091B01EBD171801A4F1004EB6106FB
:10397000A0EB61009B1B604407FB07F10FE000BF59
:10398000384400B2001B00EBD070421004EB60071B
:1039900001EB6000DB1BACEB000002FB02F110FB53
:1039A00000F013FB030200208A4298BF0120BDE80B
:1039B000F08100BFAEEB000424B2A34202DA012082
:1039C000BDE8F081944517DAB445F8DC201A02B25C
:1039D000AEEB020202EBD27201EB620100EB62007D
:1039E000ACEB01015710181A11FB01F107FB07F2AC
:1039F00010FB001114E000BF211A0CB2AEEB04075B
:103A000007EBD777801AA0EB670001EB67016044F2
:103A10007E10591A10FB00F006FB06F211FB0101A3
:103A20000020914298BF0120BDE8F08170B5B1F946
:103A30000030B2F90040B1F902C0B2F90250B1F958
:103A400004E0B2F90460A342B1F90610B2F906200D
:103A5000B8BF1C46AC450480B8BF6546B645458036
:103A6000C8BF764686809142C8BF0A46C28070BDF4
:103A70002DE9F04F8FB0189D002D00F061810646B2
:103A800019980228C0F05C8193460C460A9303F013
:103A900093FE814611F08EFED9F800108046CA6A66
:103AA00080680B900AB1084690470DA8314622461F
:103AB000FFF728FE002800F04381B8F81000B8F89E
:103AC000121040424A4201B212B20DA80DF084F920
:103AD000DDF828E0BEF1000F64D0D9F80000007CCA
:103AE00000075FD4BDF83400BDF83810081A013063
:103AF00002B2012A56DB511E02F0030C03294FF0DB
:103B000000012DD322F00301AA4649420EF1010320
:103B10006FF003029F18FE783D79802E4FF000066B
:103B20007C79B87988BF4FF0FF36FE700026802D73
:103B300088BF4FF0FF363E710026802C88BF4FF0C3
:103B4000FF3604327E7180284FF0000001EB020640
:103B500088BF4FF0FF300436B871DBD1111D5546D8
:103B6000BCF1000F1ED01EF80100002280284FF08B
:103B7000000088BF4FF0FF30BCF1010F0EF80100CC
:103B800010D071444878802888BF4FF0FF32BCF1D4
:103B9000020F4A7006D088780022802888BF4FF034
:103BA000FF328A70D9F80000C06900284CD01FFA93
:103BB0008BFA03F001FEB8F81010B8F81420804614
:103BC000501A012D00F1010940F0B480BDF93670A2
:103BD000BDF93A00874200F3B380BDF838104FF6C4
:103BE000FF7305E002B2974207F1010780F2A88057
:103BF000BDF934400AB29442F4DCCB46C146D0460B
:103C0000DDF82CA0D9F8000026EA0301D0F81CC08A
:103C100001EB080639B2199DCDE900160FFA8BF2B7
:103C200023B251460295E047BDF938104FF6FF73B5
:103C30008C4204F10104E5DBBDF83A0089B2C246CA
:103C4000C846D946CEE700BF1A981FFA8BF1002864
:103C50000C9100F0B9800138C1B2022970D8B8F8CF
:103C60001010B8F8142040B2511A4A1C43F21C112B
:103C7000C0F60301BDF9369051F8200011B2099049
:103C800019FB02F00B9A012D02EB400740F0128362
:103C9000BDF93AC0E14553DC19980C9A4FF61F0361
:103CA000043003EA0B0302F4FC66C00843EA06434F
:103CB00058434FF61F03C0F2E07303EA5010BDF8FB
:103CC00038E0DDF8248040EA10404B0000214FF638
:103CD000FF7B0B930CE000BFBDF83AC01FFA83FED8
:103CE0000B9B0FFA8CF2914509F101091F4427DA69
:103CF000BDF934500FFA8EF29542F2DC199A07E0C2
:103D000027F81500BDF938309D4205F10105E3DAC9
:103D100037F815A05145F3D00C9926EA0B006FF344
:103D20000F044618544430462146C047199A51465C
:103D3000E6E700BFBDF93650BDF93A108D4203DD0C
:103D40000FB0BDE8F08F00BFBDF93430BDF83800CA
:103D50009AB2C71A01373FB20C970A9FFF1A00BFE9
:103D600003B216B2199A9E4205DD23E001B28E42DB
:103D700006F101061CDAB95D0029F7D0D8F8000079
:103D800051434FF6FF72090A2BEA0202C46902EBA3
:103D90000A0B2AB202910B9900920FFA89F233B200
:103DA000CDF804B0A047199ABDF83800DEE700BF8F
:103DB000BDF83A100AB29542C2DA0C9BBDF8342025
:103DC00001351F44CCE700BF03F0F6FCB8F8101033
:103DD000B8F814208046501ABDF83820BDF9346078
:103DE000013001B2921B0691BDF93670BDF93A104F
:103DF000013212B20892CA1B013212B207922A464D
:103E00000B9D17FB00F005EB400000EB46041998F2
:103E1000012A1BD1FE28C0F0AF82D8F80000406B09
:103E2000002800F005860DA80CF0ACFFF128C0F0CA
:103E3000FF85D8F80000069A476B0C9E0DAB29460B
:103E40000096B8470FB0BDE8F08F00BFFE280C9871
:103E50004FEA0040C0F02C8407990129FFF670AFAB
:103E60000C9900F0FC6041EA01494FF61F0101EA9C
:103E70000B01089A00EB010E06984FF61F0CA2F1F9
:103E8000040AC0F2E07C801A002509900BE000BF14
:103E90000A945C460B9D079801358542099804EB0E
:103EA00040043FF44DAF089E4FF00008012EA3469A
:103EB000C0F244810A9C14F0030000F0878020784F
:103EC0000C99FF285B4610D01988043041EA014163
:103ED00001EA0C01C008AEEB0102504301EB5010A7
:103EE00000EA0C0040EA104081B2184620F8021B9C
:103EF000611C022E4FF0010866DB11F0030263D053
:103F00000A780C99FF2A10D00088111D40EA004061
:103F100000EA0C00C908AEEB0002514300EB51105F
:103F200000EA0C0040EA104081B25846ABF802109B
:103F3000A11C0BF10400032E4FF0020844DB11F02A
:103F4000030241D00A780C99FF2A10D00088111D75
:103F500040EA004000EA0C00C908AEEB0002514301
:103F600000EB511000EA0C0040EA104081B25846C4
:103F7000ABF80410E11C0BF10600042E4FF003080F
:103F800022DB11F003021FD00A780C99FF2A10D00F
:103F90000088111D40EA004000EA0C00C908AEEBA1
:103FA0000002514300EB511000EA0C0040EA1040BF
:103FB00081B2ABF8061004340BF1080B4FF0040883
:103FC000D0450B9506DD8FE083460C46D0450B951A
:103FD00000F38A800025002609E000BF0C98C88005
:103FE000043608EB0600504505F1080578DCA059B9
:103FF0000028F5D0411C0DD10BEB05005A46800777
:1040000066D00C9902EB460022F81610C0F8029018
:10401000C180E5E7C1B2FF290C995B4613D033F8A4
:104020001610042241EA014152FA80F001EA0C0123
:10403000C008AEEB0102504301EB501000EA0C0047
:1040400040EA104081B223F81610A019427803EB21
:1040500046010C9BFF2A10D04B88043243EA0343ED
:1040600003EA0C03D208AEEB03077A4303EB5212C8
:1040700002EA0C0242EA124293B24B8082780C9B15
:10408000FF2A10D08B88043243EA034303EA0C036F
:10409000D208AEEB03077A4303EB521202EA0C029A
:1040A00042EA124293B28B80C078FF2896D0CA8829
:1040B000043042EA024202EA0C02C008AEEB0203FC
:1040C000584302EB501000EA0C0040EA104086E72B
:1040D00002EB460042F81690C0F8049080E700BF5B
:1040E0003444089EAB448046B045BFF6D1AEA6EB43
:1040F000080010F0030127D022780C982646FF2AEA
:104100005C4610D02088043240EA004000EA0C00EF
:10411000D208AEEB00035A4300EB521000EA0C0049
:1041200040EA104080B2A3462BF8020B012906F1A9
:1041300001050DD108F1010046E000BF0A9CD04501
:104140000B957FF747AFCFE7254640463DE000BFE0
:104150002A780C98FF2A11D0BBF80000043240EAFC
:10416000004000EA0C00D208AEEB00035A4300EB1B
:10417000521000EA0C0040EA104080B2B51C02293F
:1041800004F1040B6080304602D108F102001BE00C
:1041900029780C98FF2911D0BBF80000043140EABF
:1041A000004000EA0C00C908AEEB0002514300EBEE
:1041B000511000EA0C0040EA104080B2A080F51CCB
:1041C00004F1060B08F10300089E6FEA0801314470
:1041D00003295C460A95FFF45DAE08990027A1EB20
:1041E00000085C4606E000BF0437E080B84504F1F3
:1041F00008045BD0E85D0C9EFF2810D022880430B4
:1042000042EA024202EA0C02C008AEEB0203584343
:1042100002EB501000EA0C0040EA104086B2E819A8
:10422000268042780C9B0BEB4706FF2A10D0738840
:10423000043243EA034303EA0C03D208AEEB030162
:10424000514303EB511101EA0C0141EA11418BB2D8
:10425000738082780C9BFF2A10D0B188043241EA27
:10426000014101EA0C01D208AEEB01035A4301EB14
:10427000521101EA0C0141EA11418BB2B380C278BC
:104280000C98FF2AB0D0E088111D40EA004000EAF7
:104290000C00C908AEEB0002514300EB511000EADC
:1042A0000C0040EA104080B29EE700BFE8190A9077
:1042B000F0E500BFBDF93AC0E1453FF741ADBDF9BA
:1042C0003420BDF838300A9D981A013000B20B90A6
:1042D000388896B2A5EB020849004FF0000B8646DD
:1042E0000A911AB236B2964234DC199D22E000BF20
:1042F00002FB05F0FC2A2A4698BF020A4FF6FF701F
:104300000C992AEA00006FF30F0400EB010A1C4429
:10431000099B504621469847199D18F806B037F872
:1043200016E027F81600BDF8383019B28E4206F1B3
:1043300001060DDA18F80620002AF6D037F81630F4
:104340005A45D5D11FFA8EF19942EAD0D0E700BF85
:10435000BDF83AC00FFA8CF18945BFF6F1AC0B9964
:10436000BDF8346088440A9909F101090F441AB272
:1043700036B29642B9DDEDE707980128FFF6E0ACCA
:1043800008980128FFF6DCAC199D0C9B4FF61F0125
:10439000281D01EA0B0103F4FC62C00841EA024156
:1043A00048434FF61F01C0F2E07101EA501ED80ADF
:1043B0006843CBF345110C9001FB05F00A90089877
:1043C0000BF01F02411E049100F0030120F00300D6
:1043D0000990069805910B9917FB006702FB05FCF5
:1043E00085F0FF0344F2800501EB4707C0F240056A
:1043F0004EEA1E4E07F1060A4000002148F28107EE
:104400004FF0000B03900EE024F819E0069808998D
:1044100004EB4004079801318142DDF82CA0039899
:1044200082443FF48DAC04984FF0000903280891B2
:10443000CDF82CA080F08A8005980028E6D034F8CA
:104440001960B34520D00C99F00A10FB031000FB53
:1044500007504FF60001C0F20F0101EA103E0A9822
:10446000C6F3451111FB030106F01F0010FB03C04A
:1044700000FB075001FB0751C0F3C450C1F3C55105
:10448000704440EA411EB346059824F819E001281B
:10449000BCD009F1010A34F81A60B34520D00C9958
:1044A000F00A10FB031000FB07504FF60001C0F2AA
:1044B0000F0101EA103E0A98C6F3451111FB0301F2
:1044C00006F01F0010FB03C000FB075001FB075163
:1044D000C0F3C450C1F3C551704440EA411EB34615
:1044E000059824F81AE0022890D009F1020934F85E
:1044F0001960B34588D00C99F00A10FB031000FB3B
:1045000007504FF60001C0F20F0101EA103E0A9871
:10451000C6F3451111FB030106F01F0010FB03C099
:1045200000FB075001FB0751C0F3C450C1F3C55154
:10453000704440EA411EB34666E700BF099809F19E
:10454000040948452AF808EB3FF476AF3AF8068CA0
:10455000C34513D13AF8046C2AF806ECB34535D1BB
:104560003AF8026C2AF804ECB34556D1BAF8006068
:104570002AF802ECB345E1D077E000BF0C984FEA8F
:10458000D82616FB030606FB07564FF60000C0F2BE
:104590000F000A9900EA1636C8F3451010FB031005
:1045A00008F01F0111FB03C101FB075100FB07507D
:1045B000C1F3C451C0F3C550314441EA401EC34663
:1045C0003AF8046C2AF806ECB345C9D00C99F00A05
:1045D00010FB031000FB07504FF60001C0F20F0163
:1045E0000A9A01EA1030C6F3451111FB032106F0C7
:1045F0001F0212FB03C202FB075201FB0751C2F369
:10460000C452C1F3C551104440EA411EB3463AF8C2
:10461000026C2AF804ECB345A8D00C99F00A10FB00
:10462000031000FB07504FF60001C0F20F010A9A79
:1046300001EA1030C6F3451111FB032106F01F02F9
:1046400012FB03C202FB075201FB0751C2F3C45223
:10465000C1F3C551104440EA411EB346BAF80060A8
:104660002AF802ECB3453FF469AF0C99F00A10FB4D
:10467000031000FB07504FF60001C0F20F010A9A29
:1046800001EA1030C6F3451111FB032106F01F02A9
:1046900012FB03C202FB075201FB0751C2F3C452D3
:1046A000C1F3C551104440EA411EB34646E700BF7E
:1046B0008F423FF745AB08990129FFF641AB4FF612
:1046C0001F0101EA0B0100F0FC6000EB010A0898F1
:1046D0000B9A411E049100F003010591069920F008
:1046E0000300B4F80090099017FB01604FF61F0B10
:1046F00002EB4000C0F2E07B821D48000026002350
:10470000CE4603902FE000BFF0B234F815E0FF284A
:1047100000F08A8104204EEA0E4150FA86F001EA48
:104720000B01C008AAEB0103584301EB501000EA4B
:104730000B0040EA10401FFA80F93B4624F8159020
:104740000A99089A0698114404EB4004BDF93A000E
:104750000A910B99079A814201F1010003990746DA
:104760000A44BFF6EDAA04984FF0000803280B97FF
:10477000079203D20A9DDDF864C0D4E0DDF864C07E
:10478000174622E0F1B2B7F800E0FF2948D0042133
:104790004EEA0E4251FA86F102EA0B02C908AAEB70
:1047A0000203594302EB511101EA0B0141EA1141A5
:1047B0001FFA81F90346A7F80090099808F1040848
:1047C000404507F1080700F0AB800A9810F8085040
:1047D0007DB3FF2D614605FB0CF018BF010A9D4219
:1047E00018BF0E4603D137F8060C86451FD0F0B22D
:1047F00037F806ECFF2817D004204EEA0E4150FA95
:1048000086F001EA0B01C008AAEB0103584301EB53
:10481000501000EA0B0040EA10401FFA80F905E052
:10482000DDF83090C6E700BFDDF830902B4627F862
:10483000069C0A9800EB0805687870B3FF2800FB17
:104840000CF118BF4FEA112C984218BF664603D1ED
:1048500037F8041C8E451CD0F1B237F804ECFF2960
:1048600014D004214EEA0E4351FA86F103EA0B03F9
:10487000C908AAEB0302514303EB511101EA0B01F2
:1048800041EA11411FFA81F902E000BFDDF83090E2
:104890000346DDF864C027F8049CA87858B3FF28C5
:1048A000624600FB0CF118BF0A0A984218BF164670
:1048B00003D137F8021C8E451BD0F1B237F802EC59
:1048C000FF2913D004214EEA0E4251FA86F102EA82
:1048D0000B02C908AAEB0203594302EB511101EA8A
:1048E0000B0141EA11411FFA81F901E0DDF8309036
:1048F000034627F8029CE87800283FF45EAFFF28C3
:10490000624600FB0CF118BF0A0A984218BF16460F
:104910007FF438AF39888E457FF434AF4BE700BF62
:104920000A9800EB0805059800283FF409AF28789D
:1049300058B3FF28674600FB0CF118BF0F0A9842D6
:1049400018BF3E4603D134F818108E451BD0F1B283
:1049500034F818E0FF2913D004214EEA0E4351FA2F
:1049600086F103EA0B03C908AAEB0307794303EBBB
:10497000511101EA0B0141EA11411FFA81F901E0ED
:10498000DDF83090034624F81890059801283FF48C
:10499000D7AE6F786FB3FF2F604608F1010207FBB7
:1049A0000CF118BF080A9F4218BF064603D134F81D
:1049B000120086451BD0F0B234F812E0FF2813D065
:1049C00004204EEA0E4150FA86F001EA0B01C008BD
:1049D000AAEB0103584301EB501000EA0B0040EA38
:1049E00010401FFA80F901E0DDF830903B4624F8D2
:1049F0001290059802283FF4A3AEAF78002F3FF441
:104A00009FAEFF2F08F1020507FB0CF018BF4FEA1D
:104A1000102C9F4218BF66467FF476AE34F815001E
:104A200086457FF471AE89E6DDF8309085E600BFFB
:104A300007980128FFF684A906984FF6FF774600ED
:104A40000C9925EA07004518089A204629460FF0D8
:104A50009FFE0798344401380790F1D1FFF770B9F1
:104A60002DE9F04F8FB0189F002F00F0AF818846DE
:104A7000014619980228C0F0A98108920DA8424663
:104A80000C93FEF73FFE002800F0A08102F094FE98
:104A9000064610F08FFE3168D0F80890CA6A0446C6
:104AA0000AB108469047628ABDF83630208ABDF8C0
:104AB0003410A3EB020EBDF83830A1EB000C181A2D
:104AC000BDF83A30ADF834C09F1A0C9BADF836E013
:104AD000002BADF83800ADF83A706AD03268127C1D
:104AE000120766D4A0EB0C02013215B2012D60DB77
:104AF000691E05F0030203294FF0000A3BD3CDE9FC
:104B0000062725F0030255425A1C6FF00307CDE932
:104B100009E600BFD319D97893F804B080294FF083
:104B2000000193F805E093F806A088BF4FF0FF312D
:104B3000D9700021BBF1800F88BF4FF0FF31197190
:104B40000021BEF1800F88BF4FF0FF31043759714B
:104B5000BAF1800F4FF0000105EB070688BF4FF058
:104B6000FF3104369971D5D107F1040A0C9BDDE9B8
:104B700009E6DDE90627E2B113F80A1000258029CD
:104B80004FF0000188BF4FF0FF31012A03F80A10EF
:104B90000FD053445978802988BF4FF0FF35022A3F
:104BA0005D7006D099780022802988BF4FF0FF32CF
:104BB0009A703168CDF82C90C969002976D002F03E
:104BC000FBFDB8F80410B8F90030B8F90260BDF97F
:104BD00036A0B4F912E0C91A0A90A08AB4F91050AC
:104BE000BDF834200131AAEB06060FFA81FC7644A9
:104BF000089C401B06FB0CF605FA82F504EB460602
:104C0000EB1A189C00F10109BDF83800BDF93A1003
:104C10000FFA82FE06EB4303012CA3EB4E0540F096
:104C2000D3808A4500F3D2804FEA4C034FF6FF77DA
:104C3000099303B20FFA82F8984527DCD3460C9506
:104C40004D46DDE90A9A00BF0C99D9F8000031F809
:104C5000181026EA0702C46956180FFA8BF1199F3B
:104C6000CDE900162AB20FFA88F351460297A04701
:104C7000BDF938004FF6FF77804508F10108E3DB06
:104C8000BDF83A10A9460C9D80B2DA460AB29245A8
:104C900080F29C80099BBDF834200AF1010A1D4472
:104CA00003B20FFA82F89845C8DDEFE7B4F910B007
:104CB000A58ADDF86890B8F90010A5EB0B053AB2AB
:104CC000B4F91230B8F902A0B8F8047001350FFA3F
:104CD0008EFE8EB22CB2B9F1000FCCF1010500F0BE
:104CE0008D80CDE906B19B46A9F10103CDF828E0FE
:104CF000C8460994D9B20A9CDDF86090022965D8AB
:104D0000B91B01310FFA81FE09990B9E614306EB35
:104D100041060BEB0401A1EB0A01089F01FB0EF118
:104D200007EB410759B243F21C13C0F6030353F8D3
:104D30002180B9F1010F0FFA8CF340F07183944296
:104D400044DC0699079D1944491B07EB4101A1EB7F
:104D5000430709994FF6FF7B49000C914FEA4E013A
:104D60000B9101B20FFA8CF989451ADCDDF864A0C9
:104D700037F8190025EA0B010D1836F819006FF302
:104D80000F040444284621465246C04726F819001D
:104D9000BDF93800814509F10109E9DBBDF83A2088
:104DA00080B20A9B11B28B4210DA1946591C0A9143
:104DB0000C99BDF834C00E440B990F4401B20FFAA0
:104DC0008CF98945D2DDECE78A4503DD0FB0BDE8FB
:104DD000F08F00BF831A01331BB20C9E0993CEF1F2
:104DE00000030A9F1E444FEA4C030C9303B20FFAD0
:104DF00082F8984500F34C8500F027BD284400B2A6
:104E00000790A2EB0E00013000B20990B81B0130F0
:104E10000B9A06B204FB0EF002EB40020FFA8CF084
:104E200002EB400903EB0E021D46A2EB0A02089BAF
:104E3000724303EB42020BFA8CF3189F5B1A0A963B
:104E4000012F02EB430619D11998FD2840F2048383
:104E5000099801280798B9DB4FEA40080A986700CB
:104E600044004846314642461CF0F6FC0998B944D5
:104E7000013826440990F4D1A8E700BF0F461999DC
:104E8000FD2940F2B5830999DDF81CC001299DDB9D
:104E900072462B461146BE460A9F0B44A3EB0A03FB
:104EA00003FB07B1ACF1040208440899A0EB0E0023
:104EB0004FF61F0501EB4000C0F2E07592464FEA45
:104EC000440800F1060B780000240690CDF810800D
:104ED0000DE000BF089C069909980134C144E644DE
:104EE0000E4484428B44CDF830E03FF46FAFBCF108
:104EF000010F4FF000070DDBDDF830E01EF003007E
:104F0000724600F08E809EF80000D8B1FF2805D1CF
:104F1000308815E0DDF830E0724682E03188B9F87B
:104F2000003041EA014143EA034304302B40294069
:104F3000C008C91A484303EB5010284040EA10400B
:104F4000A9F800000EF10102BCF1020F4FF00107B9
:104F500067DB12F0030064D01078B8B1FF2801D1EC
:104F6000708811E07188B9F8022041EA014142EAF3
:104F7000024204302A402940C008891A484302EB03
:104F80005010284040EA1040A9F802000EF1020239
:104F9000BCF1030F4FF0020743DB12F0030040D0D7
:104FA0001078B8B1FF2801D1B08811E0B188B9F804
:104FB000042041EA014142EA024204302A402940E9
:104FC000C008891A484302EB5010284040EA1040BC
:104FD000A9F804000EF10302BCF1040F4FF003071F
:104FE0001FDB12F003001CD01078B8B1FF2801D1EC
:104FF000F08811E0F188B9F8062041EA014142EA5F
:10500000024204302A402940C008891A484302EB72
:105010005010284040EA1040A9F806000EF10402A2
:10502000042757450B96089480F2E68009EB470069
:10503000CDF814B00BEB470B4FF0000C4FF000080D
:105040000A921BE00BEB0C0131F8063C00EB480523
:1050500020F80C3031F8043C6B8031F8021C00EB76
:105060000C03A9803BF80C10D98008F1040807EB69
:10507000080151450CF1080C80F2B48052F8083058
:10508000002BF2D0591CDDD0D9B229B3FF2905D1AC
:105090000BEB0C0131F8061C1CE000BF0BEB0C0104
:1050A00031F8061C30F80C50042252FA83F34FF604
:1050B0001F0245EA0545C0F2E07241EA0141154090
:1050C0001140DB08491B594305EB511111400A9A65
:1050D00041EA114120F80C1002EB0803544693F802
:1050E00001A0BAF1000F28D00BEB0C01BAF1FF0FB1
:1050F00004D131F8041C00EB48051DE000EB480525
:10510000B5F802E031F8041C4EEA0E42BE464FF6F6
:105110001F07C0F2E07741EA01410AF104063A4074
:105120003940F608891A714302EB51110B9E0A9A15
:105130003940774641EA114169809978DDF830E0DD
:10514000A24631B3FF2907D10BEB0C0131F8021C49
:1051500000EB480291801BE00BEB0C0200EB4806D1
:1051600032F8022CB5884FF61F0445EA0545C0F217
:10517000E07442EA0242043125402240C908521B31
:10518000514305EB5111214041EA1141B1800B9E81
:105190000A9AD97800293FF468AFFF2906D13BF875
:1051A0000C1000EB0C02D1801AE000BF00EB0C03E6
:1051B0003BF80C20DE884FF61F0446EA0646C0F294
:1051C000E07442EA0242043126402240C908921BA0
:1051D000514306EB51110B9E214041EA1141D98008
:1051E0000A9A42E74244DDF81CC04FF61F05DDE98C
:1051F000048B0F46C0F2E0756745BFF66BAEACEBB3
:10520000070010F0030C07D0107800B3FF2807D177
:1052100036F8170019E000BF3B46104642E000BFD9
:1052200036F81710134639F8172041EA014142EACF
:10523000024204302A402940C008891A484302EB40
:10524000501028401A4640EA104029F81700501C18
:10525000BCF1010F07F1010324D00078D8B1FF2879
:1052600002D136F8130014E036F81310144639F85A
:10527000132041EA014142EA024204302A40294017
:10528000C008891A484302EB50102840224640EAE1
:10529000104029F81300901CBCF1020F07F1020323
:1052A00040F09480DDF81CC0F94361440329FFF409
:1052B00011AEACEB03075C001DE000BF321909EB37
:1052C0000403D288DE8842EA024246EA06460431F6
:1052D0002E402A40C908921B514306EB51110B9EE8
:1052E000294041EA1141D980043F04F1080400F14A
:1052F00004003FF4EFAD0178C1B1FF2902D1315B69
:1053000012E000BF325B39F8043042EA024243EA5D
:10531000034304312B402A40C908D21A514303EBFE
:105320005111294041EA114129F80410417831B165
:10533000FF2907D13119498809EB0402518081788E
:10534000C1B91EE0321909EB040352885E8842EAB3
:10535000024246EA064604312E402A40C908921B02
:10536000514306EB51110B9E294041EA11415980EE
:10537000817831B1FF2907D13119898809EB0402FD
:105380009180C178C9B9AFE7321909EB040392885B
:105390009E8842EA024246EA064604312E402A40EE
:1053A000C908921B514306EB51110B9E294041EA5B
:1053B00011419980C178002996D0FF297FF47EAFF2
:1053C0003119C98809EB0402D1808DE70078DDF836
:1053D0001CC0E0B1FF2803D136F8130015E000BF70
:1053E00036F81310144639F8132041EA014142EA15
:1053F000024204302A402940C008891A484302EB7F
:1054000050102840224640EA104029F81300D01CD2
:10541000FB1CF94361440329FFF45CAD49E700BF7D
:1054200094423FF7D3AC291809B20B9159420C9B17
:1054300007EB410A03EB010B09994FF6FF7949008D
:105440000C914FEA4E01099101B20FFA8CF78F428D
:1054500000F3548233E200BF0998079A0128A8BFDD
:10546000012AFFF6B3AC531E19980C9302F0030304
:1054700022F0030A0A9A04304FF61F015200C008B6
:10548000C0F2E0710A9262004FF0000B0B93089299
:105490000AE000BF089A0BF1010B9144099A934569
:1054A0000A9A16443FF492AC0C9A032A02D20022C4
:1054B00056E000BF00226FF0070300BF06EB0308B1
:1054C00009EB03042789B8F808E047EA0747B44620
:1054D0004EEA0E460F400E40F61B464307EB5617AA
:1054E0000F4047EA174727810CEB420709EB4206BA
:1054F00075887F8845EA054547EA07470D400F4014
:105500007F1B474305EB57170F4047EA1747778044
:10551000A789B8F80C6047EA074746EA06460F40F5
:105520000E40F61B464307EB56170F4047EA174756
:10553000A781E789B8F80E6047EA074746EA0646BA
:105540000F400E40F61B464307EB56170F40043240
:10555000664647EA1747924503F10803E781ADD154
:105560000B9C002C96D039F8123036F8127043EAB2
:10557000034347EA07470B400F40FF1A474303EB3B
:1055800057130B4043EA1343012C29F812303FF420
:1055900081AF531C39F81370354636F8136047EA6B
:1055A000074746EA06460F400E40F61B464307EB08
:1055B00056170F402E4647EA1747022C29F813705A
:1055C0003FF468AF023239F8123036F8127043EA0D
:1055D000034347EA07470B400F40FF1A474303EBDB
:1055E00057130B4043EA134329F8123052E700BF28
:1055F00007990129FFF6EAAB09980128FFF6E6AB07
:105600004A1E01F0030B21F003080A994FF61F0010
:105610004900C0F2E0700A9161004FF0000E0B9259
:1056200008910CE008990EF1010E89440999E244B1
:105630008E450A99CDF830A00E443FF4C7AB0B99C4
:1056400003296FD2DDF830A00027DDF81CC0BBF1C4
:10565000000FE7D01AF80710D9B1199BFC2901FBFC
:1056600003F2194698BF110A36F8172039F8174087
:1056700042EA024244EA0444043104400240C908B8
:10568000121B514304EB5111014041EA114129F829
:105690001710BBF1010FC5D0791C1AF80120DAB13F
:1056A000199BFC2A02FB03F41A4698BF220A36F81B
:1056B000114039F8115044EA044445EA05450432E2
:1056C00005400440D208641B624305EB52120240BD
:1056D00042EA124229F81120BBF1020FA2D0B91CF4
:1056E0001AF80120002A9DD0199BFC2A02FB03F422
:1056F0001A4698BF220A36F8114039F8115044EA88
:10570000044445EA0545043205400440D208641BC0
:10571000624305EB5212024042EA124229F811207C
:1057200080E700BFDDF830A000210027B44605E087
:105730000437B84501F108013FF487AF1AF8072094
:10574000D2B1199BFC2A02FB03F41A4698BF220A25
:10575000745A39F8015044EA044445EA05450432D4
:1057600005400440D208641B624305EB521202401C
:1057700042EA124229F801200AEB0702547804B3E6
:10578000199BFC2C04FB03F51C4698BF2C0A06EB66
:10579000470509EB47066D88B6F802A045EA0545BE
:1057A0004AEA0A43043403400540E408ED1A6C4316
:1057B00003EB54130340DDF830A043EA1343738036
:1057C00066469478E4B1199DFC2C04FB05F32C4645
:1057D00098BF1C0A731809EB01059B88AE8843EA41
:1057E000034346EA0646043406400340E4089B1B94
:1057F000634306EB53130340664643EA1343AB800F
:10580000D278002A94D0199CFC2A02FB04F3224689
:1058100098BF1A0A731809EB0104DB88E58843EA8C
:10582000034345EA0545043205400340D2085B1BAB
:105830005A4305EB5212024042EA1242E28077E7F5
:1058400001B2884508F1010820DA16F8081000298D
:10585000F6D0199A3868514335F818204FF6FF737F
:10586000090A2BEA0303C46903EB020B0FFA8AF25D
:1058700002910B9900920FFA89F20FFA88F3CDF892
:1058800004B0A047BDF83800DAE700BFBDF83A1011
:105890000AB29245BFF69AAA099A0C9B1644BDF823
:1058A00034200AF1010A1D4403B20FFA82F8984528
:1058B000CBDDEDE701B28F4207F101071CDA1BF8DF
:1058C00007100029F6D0199AFC2901FB02F098BFB5
:1058D000020A3AF8170025EA09010D1836F81700F0
:1058E0006FF30F04044428462146C04726F81700EA
:1058F000BDF83800DEE700BFBDF83A200A9B11B2C0
:105900008B42BFF663AA1946591C0A910B99BDF840
:1059100034C08B440C990E4409998A4401B20FFAA1
:105920008CF78F42CBDDE9E72DE9F04F91B00546CA
:1059300026F028FD044600201090E96840F248183F
:105940000869C2F20008C8F8001022F079FAD8F805
:105950000010486918B122F073FAD8F80010C8692D
:1059600022F06EFAD8F80000006A22F069FAD8F83E
:1059700000000169002900F07D80B0F854610294B4
:10598000002E00F07D8000244FF001090DF1240A63
:10599000012103E00134B44231464DD20029F9D04F
:1059A000011991F834110029F4D1002507E000BF56
:1059B000D8F800000135B0F85461B542EAD2A542EA
:1059C000F6D0411991F834110029F1D100F13401D8
:1059D00001EBC40001EBC501FDF712FF0028E7D081
:1059E000D8F80000343000EBC40100EBC50250468B
:1059F000FEF71CF850460BF0C5F9D8F80010064623
:105A000001EBC40034300BF0BDF9D8F800100746A4
:105A100001EBC50034300BF0B5F938448642C7D2EB
:105A2000D8F80000DDE9092300EBC40128444A63EB
:105A30008B6380F83491BBE70021002EC8F8041076
:105A400000F09D81012E1FDB811991F83321EAB10D
:105A5000022E19DB91F83221D2B1032E14DB91F81A
:105A60003121BAB1042E0FDB91F83011043E002928
:105A7000E8D110E00021A0F8541111B0BDE8F08F7A
:105A80000020C8F804007AE1002604E0013E02E0AC
:105A9000023E00E0033E0168C9680A6A22F0010282
:105AA0000A620168C9680A6A22F002020A62B0F852
:105AB0005411002900F0638100242EE04FF000090A
:105AC000A5F810900FF07AFE0138A882D8F80000EF
:105AD000A5F812900FF0C8FE0138D8F80010E8823F
